:020000041000EA
:1000000000B5324B212058609868022188439860DF
:10001000D860186158612E4B002199600221596106
:100020000121F02299502B49196001219960352056
:1000300000F044F80222904214D00621196600F024
:1000400034F8196E01211966002018661A6600F04E
:100050002CF8196E196E196E052000F02FF8012189
:100060000842F9D1002199601B49196000215960AB
:100070001A491B48016001219960EB211966A021F2
:10008000196600F012F800219960164914480160C1
:100090000121996001BC002800D000471248134993
:1000A000086003C880F30888084703B5996A0420EC
:1000B0000142FBD001200142F8D103BD02B5186610
:1000C0001866FFF7F2FF186E186E02BD00000240BE
:1000D000000000180000070000035F00212200005C
:1000E000F4000018222000A00001001008ED00E03C
:1000F00000000000000000000000000074B24E7A12
:1001000000200420F7010010C3010010C5010010F9
:10011000C1010010C1010010C1010010C101001097
:10012000C1010010C1010010C1010010C701001081
:10013000C1010010C1010010C9010010CB01001065
:10014000CD010010CD010010CD010010CD01001037
:10015000CD010010CD010010CD010010CD01001027
:10016000CD010010CD010010CD010010CD01001017
:10017000CD010010CD010010CD010010CD01001007
:10018000CD010010CD010010CD010010CD010010F7
:10019000CD010010CD010010CD010010CD010010E7
:1001A000CD010010CD010010CD010010CD010010D7
:1001B000CD010010CD010010CD010010CD010010C7
:1001C00000BE00BE00BE00BE00BE00BE00F04BF888
:1001D000103800BEF2EB887124A8001048A8001067
:1001E0003402001090A31AE700202149086006C8D5
:1001F00081F3088810471F48006800282FD10DA4FC
:100200000ECC002902D000F012F8F9E71A491B4A77
:10021000002000E001C19142FCD1194988471949E9
:1002200088471949884700BEFDE701C901C29A42C3
:10023000FBD3704748A80010C0000020340C0020F9
:10024000BCB300100000042000000420BCB3001068
:1002500000100420001004200000000070470B482C
:1002600004F0A2F80047EFF30580C0B27047000029
:1002700008ED00E0000000D0380C00204410002001
:10028000F929001011190010B52900105756000067
:1002900006005250ABB36053D8A200100600525073
:1002A000861C0302E8A20010060052505422A29DB0
:1002B000F0A2001005005250DE65F468BCB30010D7
:1002C000F8B5C0460448054B10B5834203D0044B33
:1002D000002B00D0984710BD340C0020340C0020B7
:1002E0000000000006480749091A8910CB0F591869
:1002F00010B5491003D0044B002B00D0984710BD17
:10030000340C0020340C00200000000010B5074C15
:100310002378002B09D1FFF7D5FF054B002B02D026
:10032000044800E000BF0123237010BD380D0020F9
:1003300000000000D0900010054B10B5002B03D03A
:100340000449054800E000BFFFF7CCFF10BDC046E0
:10035000000000003C0D0020D090001070B505009A
:100360004068002802D003686B6070BD0A4805F041
:1003700055F8C0239B02AA68C250A8600123074A0F
:100380009342F2D85A00D418E1006C680C5041181E
:1003900069600133F3E7C04608000300FF1F000057
:1003A00043680B60416070470EB410B583B005AB75
:1003B00010CB019301230376C168074805F008FAC2
:1003C0000199200005F0E2F90A2005F073F903B065
:1003D00010BC08BC03B01847D090001070B50600E0
:1003E00001F082F8041E1CD0037C012B03D0032BE8
:1003F00012D001250AE0012500220023416800688F
:1004000004F0DCFA002800D00025EDB22100300015
:1004100000F07AFF280070BD05686B1E9D41EDB2AB
:10042000F4E70025F6E770B505008C682100FFF7BA
:10043000D5FF002807D1A368002B09D099682800B0
:1004400001F052F870BDA168280001F04DF8F9E7FD
:100450000020F7E770B505008C68002C0ED0210055
:100460002800FFF7BBFF002801D1A468F5E70022B0
:10047000034B0021280001F02DF80400200070BD7E
:100480000000F03F70B505008C68002C07D02100FB
:100490002800FFF7A3FF002808D0A468F5E7002292
:1004A000034B0021280001F015F870BD0020FCE787
:1004B0000000F03F10B50A680149FFF775FF10BD55
:1004C000D491001010B50A680149FFF76DFF10BD07
:1004D000EC91001010B504008B68002B0ED09A68C8
:1004E000002A0FD1190000F0FFFF00280ED10022D2
:1004F000094B0021200000F0EDFF10BDFFF7DAFFEF
:100500000020FAE7FFF7DEFF0020F6E701002000F9
:1005100000F0FAFE0020F0E70000F03F70B50500A3
:100520008B68002B11D09A68002A12D1190000F0B4
:10053000DBFF041E19D0037C032B0ED00026210004
:10054000280000F0E1FE300070BDFFF7B3FF002689
:10055000F9E7FFF7B7FF0026F5E70022044B00217B
:10056000280000F0B7FF0600E9E70600E7E7C0460D
:100570000000F03F70B505008B68002B11D09A6821
:10058000002A12D1190000F0AFFF041E19D0037C1D
:10059000022B0ED000262100280000F0B5FE30000E
:1005A00070BDFFF787FF0026F9E7FFF78BFF0026F6
:1005B000F5E70022044B0021280000F08BFF060025
:1005C000E9E70600E7E7C0460000F03F70B5050028
:1005D0008B68002B11D09A68002A12D1190000F004
:1005E00083FF041E19D0037C012B0ED000262100AE
:1005F000280000F089FE300070BDFFF75BFF002689
:10060000F9E7FFF75FFF0026F5E70022044B002122
:10061000280000F05FFF0600E9E70600E7E7C046B4
:100620000000F03F10B504008B68002B0ED09A68D4
:10063000002A0FD11900FFF7D1FE00280ED10022A9
:10064000074B0021200000F045FF10BDFFF732FFEF
:100650000020FAE7FFF736FF0020F6E70020F4E776
:100660000000F03F10B50A680149FFF79DFE10BD7C
:10067000BC910010F8B504000F00896800F034FF49
:10068000051E32D0037C012B2FD1BB689968200056
:1006900000F02AFF061E2FD0037C012B2CD1BB6853
:1006A0009B689B68002B2DD14168006804F0D4F949
:1006B000071E2DD02868696804F0CEF9390003F0D0
:1006C0009FFE080004F0B0F902000B00002120009A
:1006D00000F000FF07002900200000F015FE3100A7
:1006E000200000F011FE3800F8BD39002000FFF7AF
:1006F000B9FF00270026EEE739002000FFF7B2FF20
:100700000027E8E739002000FFF7DCFE0027E2E7DA
:100710000027E0E7F8B504000F00896800F0E4FE68
:10072000051E28D0037C012B25D1BB6899682000C9
:1007300000F0DAFE061E25D0037C012B22D1BB6817
:100740009B689B68002B23D102684368286869680E
:1007500004F0D3F802000B000021200000F0BAFEE4
:1007600007002900200000F0CFFD3100200000F03C
:10077000CBFD3800F8BD39002000FFF773FF0027DC
:100780000026EEE739002000FFF76CFF0027E8E7BE
:1007900039002000FFF796FE0027E2E7F0B5CE46CD
:1007A00000B582B0019089468D680026174F002D54
:1007B00024D02900019800F097FE041E10D0037C7D
:1007C000012B0DD1026843683000390004F0B3F802
:1007D00006000F002100019800F096FDAD68E6E7E5
:1007E0004946019D2800FFF73DFF2100280000F049
:1007F0008BFD002002B004BC9146F0BD32003B00EE
:100800000021019800F066FEF4E7C0460000F03FCA
:10081000F0B5CE4600B582B0019089468D682900BA
:1008200000F062FE041E22D0037C012B1FD106685B
:1008300047680100019800F067FDAD68002D2FD0DA
:100840002900019800F050FE041E1BD0037C012BF0
:1008500018D1026843683000390004F03CF8060003
:100860000F002100019800F04FFDAD68E6E7494612
:10087000019D2800FFF7F6FE2100280000F044FD4E
:10088000002009E04946019D2800FFF7EBFE21000A
:10089000280000F039FD002002B004BC9146F0BDF4
:1008A00032003B000021019800F014FEF4E7F0B59F
:1008B000CE4600B582B0019089468D68002600279B
:1008C000002D24D02900019800F00EFE041E10D047
:1008D000037C012B0DD1026843683000390004F01D
:1008E00003F806000F002100019800F00DFDAD682F
:1008F000E6E74946019D2800FFF7B4FE21002800E5
:1009000000F002FD002002B004BC9146F0BD3200B0
:100910003B000021019800F0DDFDF4E7F0B5DE4674
:100920004F464646C0B582B000908946022200215B
:1009300000F062FB0700082004F070FD38604B46B1
:100940009D6808239B46002620E04946009D28001C
:10095000FFF788FE2100280000F0D6FC39002800AF
:1009600000F0D2FC0027380002B01CBC904699462B
:10097000A346F0BD3B689819019A216804F072FD06
:100980002100009800F0C0FCAD684646002D19D04B
:100990002900009800F0A8FD041ED6D0037C022B8D
:1009A000D3D1006806F0E0F801908046B044C3451A
:1009B000E0D8012343449B461900386805F02CFE1B
:1009C0003860D7E73B68981900230370CBE7F0B590
:1009D000D646474680B583B001900E00896800F086
:1009E00083FD051E5DD0037C022B5AD1B368996844
:1009F000019800F079FD071E64D0037C012B59D1CA
:100A00004168006804F04CF88246B3689B68002B8C
:100A100069D09968002902D08B68002B55D10198C4
:100A200000F062FD8046002862D0037C012B54D187
:100A30004168006804F034F80400286806F094F86F
:100A4000824558D2002C58D05346C61AA64200D927
:100A5000260002220021019800F0CEFA0400701C4A
:100A600004F0DCFC20602B6853441900320004F0D1
:100A7000F9FC23689C466644002333702900019DDD
:100A8000280000F041FC3900280000F03DFC414600
:100A9000280000F039FC200003B00CBC90469A46B8
:100AA000F0BD31000198FFF7DDFD002398460027D7
:100AB0000024E3E731000198FFF7D4FD00239846B6
:100AC0000024DBE700239A469FE731000198FFF7F7
:100AD000F9FC002398460024D0E731000198FFF785
:100AE000C1FD0024CAE70124644200239846A4E71C
:100AF00001246442A1E70024C0E70024BEE770B5EA
:100B000005000E00896800F0EFFC041E1AD0037C7B
:100B1000032B17D10368002B1AD09B68002B19D028
:100B200003220021280000F067FA06002368996874
:100B30000160280000F0E2FB2100280000F0E4FB47
:100B4000300070BD31002800FFF78CFD0026F3E770
:100B50000026F1E70026EFE7F8B504000D008B68EA
:100B6000002B1CD09B68002B19D00622002100F01E
:100B700043FA060023680360226893680133936098
:100B800004220021200000F037FA07000660AB685D
:100B9000B360A968200000F0B1FB3800F8BD29005F
:100BA0002000FFF787FC0027F7E770B505000E006F
:100BB000896800F099FC041E0DD0037C032B0AD138
:100BC00006683100280000F099FB2100280000F0A1
:100BD0009BFB300070BD31002800FFF743FD00266D
:100BE000F3E7F0B583B005000C008B68002B1AD03A
:100BF0000322002100F000FA01900700A468002CF5
:100C000013D02100280000F06FFC0600010028002E
:100C100000F006FA3860083007003100280000F0C4
:100C200073FBA468EBE700230193019803B0F0BDC8
:100C3000F8B504000E008B68002B2FD099680029AE
:100C40002CD08B68002B2FD100F04EFC051E02D05B
:100C5000037C032B2DD1B168200000F045FC060079
:100C60000100200000F0DCF907003100200000F056
:100C70004BFB03220021200000F0BEF90600002DEE
:100C800009D02B68BB602968200000F037FB2900E1
:100C9000200000F039FB37603000F8BD3100200043
:100CA000FFF708FC0026F7E73100FFF70BFC0026F2
:100CB000F2E731002000FFF7D5FC2900200000F00A
:100CC00023FB0026E8E770B506008C68002C0DD0E9
:100CD000237C072B0ED1A16800F006FC05002168DB
:100CE0000200300000F095FB280070BDFFF7E2FB2A
:100CF0002500F9E7FFF7B6FC0025F5E770B505001C
:100D00000C0000F02CF9A4680026002C0AD0310059
:100D1000280000F0F9FA2100280000F0E5FB0600A9
:100D2000A468F2E7280000F03DF9300070BD000033
:100D3000F0B583B001900D000C688968002922D0BD
:100D40008B68002B1FD09B68002B22D1019F38009D
:100D500000F0CAFB0600AB689968380000F0C4FBDD
:100D60000700002E05D0002803D0337C027C93427C
:100D70002FD023783D2B12D0212B24D1F31B5A1EC8
:100D80009341DBB20FE029000198FFF793FB0025A8
:100D900016E029000198FFF795FB002510E0F31BF2
:100DA0005A425341DBB2002B00D083E000253100D2
:100DB000019C200000F0A8FA3900200000F0A4FAFD
:100DC000280003B0F0BD29000198FFF74BFC002577
:100DD000EDE7012B08D0022B1BD10168306805F02C
:100DE00061FE03F021FE05E0026843683068716827
:100DF00003F071FD23783D2B12D0212B1AD03C2B10
:100E000022D03C2B2DD03E2B38D03E2B43D000257A
:100E1000CDE729000198FFF725FC00200021E9E734
:100E200001250022002303F0C9FD002800D1002580
:100E3000EBB2B8E701250022002303F0BFFD002834
:100E400000D00025EBB2AEE76278002AD9D10125A7
:100E50000022002303F0BAFD002800D10025EBB2E8
:100E6000A1E762783D2ACED101250022002303F0BC
:100E7000B3FD002800D10025EBB294E76278002A88
:100E8000C3D101250022002303F0B6FD002800D1C4
:100E90000025EBB287E763783D2B01D0002586E77C
:100EA00001250022002303F09FFD002800D100252A
:100EB000EBB278E70022034B0021019800F00AFB17
:100EC000050074E70000F03F70B5050000241B2CFE
:100ED0000AD8064BE1005A185268C9580023280066
:100EE00000F0EAFA0134F2E770BDC046DC90001071
:100EF00070B504000E00002801D1002070BD80688C
:100F0000FFF7F6FF05003100E068FFF7F1FF281852
:100F10006368002BF2D01A7C042AEFD1DA68012A28
:100F2000ECD11B681B68B342E8D10130E6E770B52D
:100F300005000C1E00D170BD8968FFF7F8FFE1685D
:100F40002800FFF7F4FF206804F07AFA61682800AF
:100F500000F0DAF921002800FFF722FAEBE710B5DC
:100F60000400FFF7FBF9012383600023036023687B
:100F70004360206010BDF8B506000C008D680F6856
:100F80003800FFF7B5FF281A012802D0013DA560FF
:100F9000F8BD39003000FFF7CAFF21003000FFF72D
:100FA000FFF9F5E710B501684B680360FFF7E3FF51
:100FB00010BD0000F8B507000D0006680EE0A4683B
:100FC000002C0AD02900206805F06CFD0028F6DB13
:100FD00001DDE468F4E76068F8BD7668002E01D0B2
:100FE0003468EDE72A0003493800FFF7DDF90020F7
:100FF000F2E7C046A4920010F8B505000E001700F5
:10100000FFF7ACF904000774002383600133C36069
:1010100002003100280000F0FCF92000F8BD0000BB
:1010200070B506000D1E19D00A7C0021FFF7E4FF01
:1010300004002A686B6802604360037C072B12D8A7
:101040009B000A4AD3589F460168300000F056F9C9
:1010500009E0006805F06AFD206004E0002200213C
:10106000FFF7CAFF0400200070BDC046BC9200100C
:10107000F0B5DE4657464E464546E0B583B00C0017
:1010800000220021FFF7B8FF060027683B78222BDB
:1010900001D00025FAE0102004F0C0F93060236888
:1010A0000133236000239A46002599460027103318
:1010B000984602E0002500E0AA4623681B78002B32
:1010C00000D1D2E04A46002A02D1222B00D1CCE046
:1010D0007B1C9B4643451BD2002D51D023681A78B8
:1010E0001300303BDBB2092B1BD83368DB191A78AD
:1010F00012011A703368DA1923681B7811785B18AB
:10110000303B1370013DEDB2236801332360D4E717
:1011100010239C46E0444146306805F07DFA30607B
:10112000DAE71300613BDBB2052B12D83368DB1919
:101130001A7812011A703368DA1923681B7811784B
:101140005B18573B1370013DEDB2236801332360F8
:10115000B3E7413AD2B2052AACD83368DB191A7822
:1011600012011A703368DA1923681B7811785B183A
:10117000373B1370013DEDB22368013323609CE7D8
:101180005346002B1AD023681B78303BDBB2072B69
:1011900092D83368DB191A78D2001A703368DA19DA
:1011A00023681B7811785B18303B13705346013B62
:1011B000DBB29A462368013323607EE74B46002B5F
:1011C00043D023681A781300303BD9B2482930D86D
:1011D0008B004949CB589F46524602252FE00723F2
:1011E0003268D35552465F4629E008233268D3550A
:1011F00052465F4623E00C233268D35552465F4681
:101200001DE00A233268D35552465F4617E00D238E
:101210003268D35552465F4611E009233268D355F0
:1012200052465F460BE00B233268D35552465F4669
:1012300005E03368DA5552465F4600E00322236832
:1012400001332360D146924637E723681A785C2A37
:1012500006D03368DA552368013323605F462CE7F4
:10126000013323600123994627E733689C4667448E
:1012700000233B700233337423681A78002A30D07D
:10128000013323602DE0013501322260226813789A
:10129000002B0DD0282B0BD0292B09D0202B07D0C9
:1012A000092B05D00D2B03D00A2B01D03B2BEAD103
:1012B00001A9380006F0E4FB306071607B19019AE7
:1012C000934216D007233374681C04F0A7F83060EB
:1012D0002A00390004F0C6F833689C4665440023B0
:1012E0002B70300003B03CBC90469946A246AB46FA
:1012F000F0BD01233374F4E7DC920010002902D022
:10130000CB680133CB60704770B505000C0008E076
:1013100021682800FFF7F8FF21002800FFF740F8B8
:101320003400002C15D0E368013BE360002B10D1A2
:10133000A668237C072BEFD89B00064AD3589F460C
:10134000206804F07DF8E7E721682800FFF713FE26
:10135000E2E770BD00940010F8B505000C000B68C2
:1013600001330B6003220021FFF746FE0700002334
:101370000360060023681B78002B0BD0292B09D0B3
:101380002100280000F01AF8002803D0306008304F
:101390000600EFE723681A78292A03D10133236076
:1013A0003800F8BD04492800FEF7FEFF3900280088
:1013B000FFF7AAFF0027F3E7E094001010B50EE056
:1013C0000B681A78002A07D00A2A05D001330B606F
:1013D000F6E7C3680133C3600B6801330B600B6829
:1013E0001B783B2BECD00A2BF3D0092BF4D0202B0D
:1013F000F2D00D2BF0D0282B06D0292B07D0002BB4
:1014000005D0FFF735FE01E0FFF7A6FF10BD002075
:10141000FCE7F0B583B005000C1E01922CD00768E4
:101420001100FFF76BFF01E0083637003E68002E21
:1014300011D02100306805F035FB0028F4DB02DD17
:101440000C363700F2E771682800FFF75DFF3B6854
:10145000019A5A6010E02800FEF780FF060038600D
:10146000200005F063FB30603B68019A5A603A68DF
:10147000002393603A68D36003B0F0BD10B51C2020
:1014800003F0CCFF0400002303604360836001226B
:10149000C26003618022120242610376FFF75FFDA2
:1014A0002000FFF711FD002202492000FFF7B1FFE5
:1014B000200010BD6494001070B5040016001D00DB
:1014C0000522FFF799FD0100066045602000FFF747
:1014D0001BFF70BD70B514001D000122FFF78CFDCD
:1014E0000460456070BD000070B504000D00036924
:1014F000002B15D10022027601332361002D0AD082
:101500006269934211D82B7C032B14D0072B35D062
:10151000002B3DD100252369013B2361280070BDCC
:10152000027E002AE8D00025F8E71D492000FEF7DA
:101530003BFF0025EFE729682000FFF7D5FF061ED7
:101540002BD0037C042B0CD0052B11D129684268C9
:10155000200033689847050031002000FFF7D4FED3
:10156000D9E72A680100200000F01CF80500F3E725
:1015700001002000FFF7B8FF0500EDE72968200013
:10158000FFF718FD050001002000FFF7B7FEC2E7D6
:1015900029002000FFF7B2FEBDE70500BBE7C0460B
:1015A00040940010F0B5DE464F464646C0B582B0C6
:1015B000050014000B68002B14D01A7C062A11D1E8
:1015C0009A68002A0ED0117C03290BD11668926804
:1015D000914607681B680360FFF7C1FC2B689B46B8
:1015E000A4682DE030492800FEF7DEFE002608E062
:1015F0002E492800FEF7D8FE26002800FFF7D2FC6F
:101600002F60300002B01CBC90469946A346F0BD46
:1016100027492800FEF7C8FE0026EEE72100280033
:10162000FFF762FF0190A4685B462B60019A316866
:101630002800FFF7EEFE01992800FFF765FEB66867
:10164000002E1FD0002CD3D0337C072BE0D12F608D
:10165000B368002BE2D1A368002BDFD00322002166
:101660002800FFF7C9FC01908046002CDCD0210047
:101670002800FFF739FF4346186008239846804446
:10168000A468F2E74B46002BB7D049462800FFF785
:101690002BFF06004B469B689946002BF2D00100B9
:1016A0002800FFF731FEEDE7A4940010B494001079
:1016B000C894001070B505000C00FFF77FFE06000F
:1016C00023681B78292B01D0300070BD0349280006
:1016D000FEF76AFE236801332360F5E76894001083
:1016E000002804D0037C022B03D000207047002088
:1016F000FCE70120FAE70068704780687047000047
:1017000070B505000C1E08D00B7C002B05D0072BF4
:101710004CD89B00274AD3589F46274804F058F8D6
:1017200070BD0A684B68254804F052F8F8E709686C
:10173000234804F04DF8F3E7282003F0BBFF2468AA
:1017400000E0A468002C0AD021002800FFF7D8FF91
:10175000A368002BF5D0202003F0ACFFF1E729208F
:1017600003F0A8FFDCE7174804F032F823689C6810
:1017700000E0A468002C0AD021002800FFF7C0FF79
:10178000A368002BF5D0202003F094FFF1E7292077
:1017900003F090FFC4E7096862680B4804F018F88A
:1017A000BEE70968094804F013F8B9E7084803F0F0
:1017B000DDFFB5E7209400106494001078940010C9
:1017C0007C9400108494001090940010D09100102C
:1017D000A094001070B506000800FFF78EFF04000B
:1017E0000BE029003000FFF78BFF29003000FFF7E6
:1017F0008BFD2000FFF781FF0400002C10D021009A
:101800003000FFF771FE0500FFF76AFF0028E8D0FF
:101810002800FFF770FF0100024803F0D9FFE4E75A
:10182000002070BDD0910010F0B5DE465746464608
:10183000C0B584B0834688469246082003F0EEFD8A
:10184000019000283AD0070008250823029317E0EA
:1018500003F030FF1CE0029B5B000393190001982A
:1018600004F0DAFE061E18D0019BFB1AC318029D75
:10187000039A02920190E4B25F1C1C70544511D08F
:1018800003F0B6FF0400FF280CD05B46002BDFD12D
:10189000013D002DDFD03B00EDE7019803F0D0FDC6
:1018A00001960BE04346002B06D0019BBB4203D2BE
:1018B000013F3A78524508D000233B70019804B0AC
:1018C0001CBC90469A46A346F0BD00223A70F3E74E
:1018D00070B582B0050001910026019B1B78002B9A
:1018E00013D001A92800FFF7E5FE041EF5D0310052
:1018F0002800FFF709FD21002800FFF7F5FD06008D
:1019000021002800FFF700FDE7E7300002B070BDBE
:1019100070B503F069FF012200211C4803F058FF55
:101920001B4803F023FFFFF7A9FD05000023194A18
:101930001949FFF7C1FD194803F04AFF184B1B680E
:10194000986804F0F1F80D2201210120FFF76CFFE7
:1019500004000378002BEED0124803F007FF2100AB
:101960002800FFF7B5FF0600200003F069FD0E48D0
:1019700003F02EFF31002800FFF7C2FE0A2003F01B
:1019800099FE31002800FFF7BFFCD4E7F094001067
:101990000C950010D51700101C9500102495001010
:1019A00068020020289500102C95001010B58300C7
:1019B000084A944663441C6840226240C024144094
:1019C0008022520113431C60C000034B9C466044BC
:1019D000416010BD04C0014000400140EFF31080A1
:1019E00072B6034B1B68002BFBD0BFF35F8F7047B1
:1019F0002C0100D0BFF35F8F024B00221A6080F3EE
:101A0000108870472C0100D070B505000E0014003E
:101A1000FFF7E4FFF208AA181578072131400123E7
:101A20008B402B4205D1DBB22B431370FFF7E2FF53
:101A300070BD3100200001F05BF80000034B1B6813
:101A400002201840431E9841C0B2704700C00640B3
:101A5000002307E0054A9A189200BFF35F8F002128
:101A6000116001331F2BF5D97047C0464000003488
:101A7000054A1078431CDBB21370172B02D91300F0
:101A800010221A707047C046B001002070B50500E2
:101A90000C00062001F042F9C000210002F0D8FC41
:101AA000C60908D00E4B9E4217D87F23184001303C
:101AB0003400460800E001246C62AE622C358023BD
:101AC0009B011D4300232B60062001F027F98000B5
:101AD000A101891902F0BCFC70BD0026014CEBE7A6
:101AE000FEFF0000FFFF000000290AD18022520003
:101AF000054B9C466044434258414000034BC25250
:101B000070470A22F4E7C0460080FCBF3C0E00206C
:101B100070B505000C00062001F000F900282DD05A
:101B2000174B9D4227D08022D203164B1A60164BCA
:101B30001A60164B9B6811009943FAD100212800C6
:101B4000FFF7D2FF21002800FFF7A0FF2C002C3464
:101B5000E96A60224A406E211140802252012243EC
:101B600011600B4B2B6380239B01234310221A60CF
:101B70000323AB6470BD80221204D6E70020F9E78E
:101B80000080034000E0004000F0004000C0004042
:101B90000103000070B505000C00080000F08CFB8C
:101BA000200000F095FC0849200000F0D5FBFFF76D
:101BB0005FFF064B9C466044800068602C75A40063
:101BC000034BE55070BDC046B11E0010400000340C
:101BD0000C0E002010B5002922D003681B7B99420F
:101BE0001ED8174B9C466144090183689C4661449A
:101BF0000C684968002A19D003681B7B9A4215D8E3
:101C000083680F488446624412019A18106853682A
:101C1000020001208B4201D80ED00020C0B210BDBE
:101C2000084B094A3B21094800F0C8FE054B064A0B
:101C30003B21064800F0C2FEA242EFD8EDE7C046C5
:101C4000FFFFFF0FF096001088950010E09700103E
:101C500010B500291FD0037B99421CD84B005B189C
:101C6000033B0468A446634400291AD0002A1ED00E
:101C7000914222D0002A26D0047BA24223D80468B5
:101C8000500080180338201881701978002920D05E
:101C900041701A7010BD104B104A6921104800F0B5
:101CA0008DFE104B104A70310D4800F087FE0F4B2F
:101CB0000D4A71210A4800F081FE0D4B0A4A72213B
:101CC000074800F07BFE044B044A6921044800F0F9
:101CD00075FE1A70DEE7C046309700104895001078
:101CE0004C9700109C97001054950010A897001076
:101CF000B497001070B506000D00140000290BD039
:101D0000002A12D0806873689847002806D12A00FC
:101D100021003000FFF79CFF200070BD2200290049
:101D20003000FFF795FF2C00F6E70C00F4E7000009
:101D300070B5CE4600B583B00500009201930AABA2
:101D40001C780BAB1B789946002C28D003685A7B73
:101D5000944209D10123002B1BD1002C3DD120003E
:101D600003B004BC914670BD002C0CD01A7B944289
:101D700009D81A6863001B19033BD3189B78002B02
:101D8000E9D00123E7E73F4B3F4A69213F4800F094
:101D900015FE3F4B3F4A65213F4800F00FFE0368A8
:101DA0009C7B002CD9D012D01A7B94420FD86200B1
:101DB0001219033A19688C466244517899730029C4
:101DC00000D1D9730023937053701370C5E72D4B66
:101DD0002D4A69212D4800F0F1FD002C3BD02B68E5
:101DE0001B7B9C4237D82D4BE3181B01AA689446F5
:101DF00063440099019A19605A60089A9A60099A96
:101E0000DA602E68002C2CD031D0337B9C422ED847
:101E100063001B19033B32689446634400229A70A6
:101E20005A701A70717B22003000FFF763FF7073E5
:101E3000844200D093E7287D009A019B00F0D4FAF9
:101E4000061E02D04B46002B17D00C9B002B00D156
:101E500085E71E7083E7124B124A3B210E4800F0C3
:101E6000ADFD114B114AA621084800F0A7FD054B16
:101E7000054A6921054800F0A1FD2868210000F00D
:101E8000FFFCE2E730970010489500104C970010D7
:101E9000DC950010A8950010E0970010FFFFFF0FE1
:101EA000F096001088950010DC97001068950010DF
:101EB000F0B5DE4657464E464546E0B58BB0099034
:101EC0008200BA4BD7583D00A3E0B94BB94A3F2135
:101ED000B94800F073FDB94BB94A3B21B94800F04D
:101EE0006DFD002B02D1002A00D0BCE0002160462D
:101EF00000F0BCFCA04219D13268736806920793C7
:101F0000B3689946F3689A464B46002B14D0002CD0
:101F100018D02B681B7B9C4214D8631EEA68D35CE4
:101F200008931B02184328610020A4E0A64BA74A8F
:101F30008C21A44800F042FDA54BA44A9021A14861
:101F400000F03CFD9D4BA34A40219E4800F036FD29
:101F500000239A46994600208DE02B69002B00D182
:101F6000A9E043451CD1069A079B10001900921B5B
:101F7000BB41994202D804D1904202D90122524277
:101F8000D317002B12DB002104910131039102943D
:101F900051460191494600912800FFF7C9FE30E003
:101FA0008D4B8A4A9F21874800F008FD804B814A6B
:101FB0003F21814800F002FD002F02D1002E00D009
:101FC0007CE02A68002C00D1C7E0537B9C4200D003
:101FD000ACE00123002B00D0BFE0D37B002B00D06E
:101FE000C1E0D473002C00D1D0E02B681B7B9C4255
:101FF00000D9CBE0013CEB689C4664442378013374
:10200000237000232B616A68BFF35F8F13608BF32B
:10201000108800F05DF9002900DA56E7002300245B
:10202000069307946A68EFF3108772B61368002B63
:10203000FCD0BFF35F8F2B689C465C7B002C87D065
:1020400000D148E71B7B9C4200D944E7634BE6186C
:102050003601AB689846464432687368121A8B4161
:10206000002B00DC3DE732687368099800F0BCF98A
:1020700000239A4699466B68BFF35F8F00221A606F
:1020800087F310884B46002B00D185E0089B1B028C
:102090002343984651461800C84706000F006A6857
:1020A000EFF3108B72B61368002BFCD0BFF35F8F79
:1020B000002F00DA51E7002F00DC7DE72B69002BB1
:1020C00000D17EE743451FD100F002F902000B1E4C
:1020D00020DB0100180092197B41984202D804D1FC
:1020E000914202D901225242D317002B18DB002162
:1020F00004910131039102945146019149460091A6
:102100002800FFF715FE7CE7334B304AA2212D480B
:1021100000F054FC264B274A3F21274800F04EFC94
:10212000234B244A3F21244800F048FC002C0ED0C9
:10213000137B9C420BD863001B19033B11688C4630
:1021400063449B78002B00D144E7012342E7244BF2
:10215000244A6921244800F031FC244B244AF72109
:10216000214800F02BFC002B0AD0117B8B4207D8B2
:102170005900CB18033B11688C4663445C7030E710
:10218000174B184A6921184800F018FC0B4B114AEC
:1021900040210C4800F012FC002800D039E70BB0B9
:1021A0003CBC90469946A246AB46F0BD0C0E0020C2
:1021B000049600103095001020960010F096001044
:1021C00088950010E09700106C960010C0950010E4
:1021D000849600109495001090960010FFFFFF0F5A
:1021E00030970010489500104C970010CC960010C6
:1021F0007895001010B50A4B5B68002B04D00A21BB
:10220000084800F085F910BD054C2300064A10214E
:10221000206800F049FA03212000FFF7BBFCEEE73D
:10222000B4010020200E0020D51B001070B5EFF384
:1022300005833F2018401038EFF3108472B6194B15
:102240001B68002BFBD0BFF35F8F01231900814077
:10225000154A5163154A12781500C5402B4214D017
:10226000114B5D6A8300124E9B599D4206D3830039
:10227000104D5B598A430D490A7007E00A4A031D55
:102280009B0099589950002300E00023BFF35F8F13
:10229000044A0021116084F31088002B00D0984775
:1022A00070BDC046280100D0004005403A0E002015
:1022B000240E0020880D002010B50100024A0348BA
:1022C000FFF7A2FB10BDC04650980010380E00204A
:1022D000044B596A00E01900024B986A5B6A994204
:1022E000F9D1704700400540084B5B6A01E0074B9D
:1022F0005B6A8B42FBD301E0044B5B6A8B4203D1E8
:10230000024B9B6A8342F7D37047C04600400540AA
:1023100070B504000D00FFF7DBFF02000B0020008A
:102320002900801859418B4202D804D1824202D937
:1023300001204042C117002902DBFFF7D5FF70BD25
:10234000024B034A3F21034800F038FB049600107B
:102350001C9800102096001070B504000D00EFF3DB
:10236000108672B61B4B1B68002BFBD0BFF35F8F30
:10237000002D1CD0200000F049FD174B98420BD0D7
:102380001900200000F04AFD0121200000F036FD78
:102390000123A340114A1360A400114BE550BFF381
:1023A0005F8F0C4B00221A6086F3108870BDA2006C
:1023B0000B4B0021D1500122A2400A490B789343D4
:1023C0000B700549200000F053FD0021200000F0B3
:1023D00015FDE4E7280100D02D22001038600540EB
:1023E000880D00203A0E0020F0B5DE4600B584B01E
:1023F0000500140001921E000293FFF769FF039489
:102400008E422CD9EFF3108B72B6294B1B68002B30
:10241000FBD0BFF35F8F274A17780124AC40E3B2AB
:102420003B431370244B5C632A1D92000199D150E9
:10243000AA002249029850501B6A23421BD11E4B0E
:102440001B6C234211D00020BFF35F8F184B00227A
:102450001A608BF3108804B004BC9346F0BD8E4222
:1024600001D18442CED80120F5E7154B154AC12190
:10247000154800F0A3FAFFF72BFF8E4214D802D1C3
:10248000039B834210D80B4B1B78BB420ED00A4BE8
:102490001C625C631F222A40012393400B4A136095
:1024A000044B1F700120CFE70020CDE70120CBE7D0
:1024B000280100D03A0E002000400540240E0020E4
:1024C00074980010349800109898001080E200E092
:1024D00010B5EFF3108472B60A4B1B68002BFBD0CB
:1024E000BFF35F8F01238340074A136207490A78CD
:1024F0009A430A70BFF35F8F024B00221A6084F385
:10250000108810BD280100D0004005403A0E002080
:10251000024B9C46614489000160704740000034D2
:1025200010B50400FFF7A4FA01002000FFF7F0FF48
:10253000FF232371BFF35F8F10BD10B50400FFF7B9
:1025400097FA01002000FFF7E3FFFF232371002328
:102550006371BFF35F8F10BD10B500291FD0037BDF
:1025600099421CD84B005B18033B0468A4466344A3
:1025700000291AD0002A1ED0914222D0002A26D04B
:10258000047BA24223D80468500080180338201826
:1025900081701978002920D041701A7010BD104B3D
:1025A000104A6921104800F009FA104B104A7031A6
:1025B0000D4800F003FA0F4B0D4A71210A4800F054
:1025C000FDF90D4B0A4A7221074800F0F7F9044B58
:1025D000044A6921044800F0F1F91A70DEE7C046A8
:1025E000309700107C9900104C9700109C970010B9
:1025F00088990010A8970010B497001070B50600D5
:102600000D00140000290BD0002A12D080687368D6
:102610009847002806D12A0021003000FFF79CFFD0
:10262000200070BD220029003000FFF795FF2C002C
:10263000F6E70C00F4E7000010B500234373013304
:102640008373037BC3730123027B9A4214D9002B4B
:102650000CD0027B934209D85A00D218033A016881
:102660008C4662440133DBB25370EDE70B4B0C4AEE
:1026700069210C4800F0A2F9002A09D0924207D83B
:10268000016853009A18033A8A180023537010BD4A
:10269000024B034A6921034800F090F9309700107B
:1026A0007C9900104C97001010B501734260836054
:1026B000FFF7C2FF10BD000070B50400002901D172
:1026C000080070BD002934D0037B994231D84B00FB
:1026D0005B18033B0268944663445A78002AEFD0A3
:1026E0002DD0037B9A422AD853009B18033B0068E5
:1026F000844663445D7800205870002925D0237BF0
:10270000994222D84B005B18033B206884466344FF
:10271000002058702000FFF771FF060029002000FC
:10272000FFF7CAFF020031002000FFF767FF01003A
:10273000C6E7094B094A6921094800F03FF9064BF1
:10274000064A6921064800F039F9034B034A69211A
:10275000034800F033F9C046309700107C99001010
:102760004C97001070B505000C001600002928D009
:102770002DD0037B99422AD84B005B18033B02689B
:10278000944663445A78002A27D19A78002A2AD19D
:102790001978FFF791FF0300002E03D0EA7B002A8F
:1027A00027D1EC73002B37D1002C49D02B7B9C42D6
:1027B00046D82A6863001C19033C1419002363706F
:1027C00070BD224B224A3821224800F0F7F8224BF4
:1027D000224A6921224800F0F1F8224B1C4A3A2192
:1027E0001C4800F0EBF8204B194A3B21194800F037
:1027F000E5F8002A0AD0297B8A4207D851008A18B6
:10280000033A29688C4662445470CAE7124B134A53
:102810006921134800F0D2F8002B0BD02A7B934299
:1028200008D843001B18033B2A68944663440022DF
:102830009A70B9E7084B094A6921094800F0BEF8C7
:10284000054B064A6921064800F0B8F8F0990010D7
:102850009C990010F8990010309700107C99001096
:102860004C970010349A00105C9A001070B5040068
:102870000A00457B2900FFF775FF6073280070BDD3
:1028800010B50400002966D0437B8B420ED000298E
:1028900011D0037B99420ED84B005B18033B0268B2
:1028A000D0188378002B0CD1002055E00121FFF7D0
:1028B000DDFF012050E0294B294A6921294800F019
:1028C0007DF8002B1FD0227B93421CD85A00D318CE
:1028D000033B2268D21813788B421AD0002B1BD0EE
:1028E000227B934218D85A00D318033B2268D2188F
:1028F00053788B4216D0002BF0D11B4B1B4A67211B
:102900001B4800F05BF8154B154A6921154800F08B
:1029100055F84378137007E0104B114A69211148AC
:1029200000F04CF843785370002383704370012209
:102930002000FFF717FF0200617B814205D02000D5
:10294000FFF75CFE6073012006E00A4B074A6D2129
:10295000074800F033F8002010BDC0463097001043
:102960007C9900104C970010C8990010B099001085
:10297000F8990010D099001000BEFDE703000A4A44
:102980001268002A08D0084A1068C318074A9A42F9
:1029900006D3054A13607047034A05491160F2E700
:1029A00001204042F7E7C046080E00200000042046
:1029B0004410002010B5FFF7DFFF000010B582B013
:1029C0000C001900002A0CD0084B002A0BD00192F1
:1029D000009323000200064802F0FAFE0120FFF7F0
:1029E000CBFF044BF1E7034AF1E7C046809A0010A1
:1029F000909A00108C9A001070B52B4B2B4A1A60DD
:102A00002B4B2C4A1A602C4B9A682A4B9343FAD1D1
:102A10002A4C01E008CC9847294B9C42FAD300F09D
:102A2000FDF8234B274A1A60234B9B68DB43DB01ED
:102A3000FAD1254B40229A675A671A67DA66234C07
:102A400009E0234B234A83212348FFF7B7FF2000E7
:102A5000FFF766FD0834214B9C4209D22368002B06
:102A6000F5D0012BEDD12000FFF767FD0834F2E728
:102A70001B4CA1681B4DC022280002F0F3FCA5608E
:102A8000FDF7F1FB002800D000BEFEF7E1FF00F0EB
:102A900041FBFFF7AFFB144C01E008CC9847134B08
:102AA0009C42FAD370BDC04600E00040BFCDFBFEA3
:102AB00000F00040FE7F3C0000C00040200C0020E1
:102AC000300C0020FFFFFF0100F00140180C002037
:102AD000E49A0010C09A0010049B0010200C002003
:102AE00000ED00E000000020300C0020340C00203D
:102AF0000FB400B583B0084802F038FE049B002BE9
:102B000007D005A90191180002F040FE034802F029
:102B10002DFE0120FFF730FFD09A0010E09A001040
:102B2000F0B5DE46574680B583B007000E009246EA
:102B30000A9A93424CD3190E01911B02180000937C
:102B40000A9A002301F0C6FC05007B00DB199C00FB
:102B50002D4B9C4664446368834200D260603B1FF7
:102B6000DBB29B46012B39D9C0239B012343802232
:102B700012011A60BB00254A9958002905D05069F6
:102B800001F066FC01300138FDD153465B0122683B
:102B90005340E022134080225201224313605B46DF
:102BA000012B26D980239B012343802212011A6026
:102BB00065602A0000230098019901F08BFCBF009A
:102BC000124BF850012003B00CBC92469B46F0BD5E
:102BD0000F4B104A2D211048FFF7F0FE012EC3D1F4
:102BE000C0239B01234303221A60A368DB07FCD5A3
:102BF000CBE72168714003230B401360A3680122D7
:102C0000B2401A42FAD0CDE700800040980D002073
:102C10005C9B00104C9B0010709B001030B583B083
:102C20000C2000F011FBFEF709FF00280DD0002357
:102C300004E099002D4A2E4888500133092BF8D919
:102C40002A4B2C4A5A6203B030BD2B4B00229A67A4
:102C500000F002FB294B01221A60274B5B6C012B11
:102C6000FBD1274B03221A60234B9B6B012BFBD11B
:102C7000022400940533234A0121234800F058FA26
:102C800000940523214A0121214800F051FA214BEB
:102C90000093002202210420FFF742FF1E4D009501
:102CA0002B00002201210520FFF73AFF104C009471
:102CB0002300002200210720FFF732FF00942300A9
:102CC000002200210820FFF72BFF0A4B009323006E
:102CD000002200210920FFF723FF00952B0000228E
:102CE00000210620FFF71CFFADE7C046980D00202D
:102CF000006CDC021BB70000008000403CB00040CC
:102D000030B00040002F68590080024000389C1C01
:102D100000C00240001BB700405973078000014B00
:102D2000C0587047980D0020074B9B6810308000FA
:102D30001950BFF35F8FBFF35F8F044B0021196001
:102D400082F310887047C04600ED00E0240100D0F7
:102D500010B5091A04394808090B05D14005400D82
:102D6000044B184380B210BD034B044A8B21044826
:102D7000FFF724FE00E0FFFFAC9D0010D49B001085
:102D8000BC9D001010B5091A04394C08090B08D174
:102D90004905490D064A11430180064B23434380F0
:102DA00010BD054B054A93210548FFF707FEC046B5
:102DB00000F0FFFF00F8FFFFAC9D0010E09B00104B
:102DC000BC9D001001238340034A10681840431E35
:102DD0009841C0B27047C04600E100E0002902D12E
:102DE000034B18607047034B1860034B1860F9E7FA
:102DF00080E100E080E200E000E100E010B50123A6
:102E000083401800FFF7EAFF10BD0000024B9B68EB
:102E100010308000C058704700ED00E070B504002D
:102E20000D00EFF3108672B60C4B1B68002BFBD025
:102E3000BFF35F8F2000FFF7E9FF094B984201D0F5
:102E4000A84205D1320029002000FFF76DFF70BDB8
:102E5000044B054A6E210548FFF7B0FD240100D060
:102E6000CD010010749D0010B89B0010BC9D001097
:102E7000F0B5CE4600B584B001900D00EFF310869A
:102E800072B65A4B1B68002BFBD0BFF35F8F584BB9
:102E90009A68019C1034A300D758564B9F4200D12A
:102EA0009FE0AF4200D19EE00297534BFB1A2F2BBD
:102EB00008D9320039000198FFF736FF04B004BC8E
:102EC0009146F0BD0198FFF77DFF03900021019826
:102ED000FFF794FFBFF35F8FFDF7C5F9002801D01E
:102EE00084421AD10123029C9C4344492300424A54
:102EF0009B1A5B415943090D4BB29C460023A168C4
:102F0000A94212D00622A256002A0DDB53009B18BC
:102F10009A002300384CA418F1E71E21384B394A97
:102F2000FF313948FFF74AFD2300A94252D106225A
:102F3000A2569146002A38DB52004A4491002E4B9B
:102F40005B189A68A260DA79E27106229A56A27139
:102F50009B795BB2002B12DABD200002A0804B46A9
:102F60005B004B449A00244B9B18284A11789971B6
:102F70004B46137003990198FFF740FF99E7201D16
:102F80001D4A8B181A1D9B88D90A1C2907D159057F
:102F90004915023149005118FFF7DAFEDEE71C4BF4
:102FA0001C4A99211848FFF709FD00280DD1002B74
:102FB00009D0FF229A71184A9A80144B1A78A2718C
:102FC00062461A70D6E70B4FF7E7201D1349FFF74B
:102FD000D9FECFE7A921124B0A4A49000A48FFF758
:102FE000EDFC044F65E7034F63E7C046240100D0C2
:102FF00000ED00E0CD010010DC010020AAAA0000D5
:10300000489D0010089C0010BC9D0010390E002047
:10301000FC9C0010F89B001000BDFFFF1602002072
:103020006C9D0010F8B50400012606432D4BF31AE1
:103030002F2B28D8FDF717F900282BD0EFF3108796
:1030400072B6294B1B68002BFBD0BFF35F8F274D57
:1030500022002449521A524155432D0D6DB2244B82
:103060009B6880001B58B3421BD00023032B32D82F
:103070005A00D21891001B4A5218927952B2AA42B1
:103080001FD00133F2E778211A4B1B4AFF311B484E
:10309000FFF794FCBD211A4B174A49001748FFF768
:1030A0008DFC134B9B68174A1A50174B1A78A27164
:1030B0001D70BFF35F8F0C4B00221A6087F31088DE
:1030C000F8BD08495A00D618B0000818FF268671C6
:1030D0000E4B8380E9E78C210D4B074AFF310748EF
:1030E000FFF76CFCDC010020240100D0AAAA00003C
:1030F00000ED00E0149D00101C9C0010BC9D001011
:103100003C9D0010CD010010390E002000BDFFFFD6
:10311000C89900100023044A03E0044911600133F8
:103120000432072BF9D9704700E400E080808080EA
:10313000F0B583B00400019117001E000C2001F0CF
:1031400087F905004201121A93019B1ADB001B1834
:103150009901380001F07CF90200103A98235B00D5
:103160009A4232D8731E062B35D8089B013B062B9A
:1031700031D8089B9E4234D33F09AF4237D3330442
:10318000089A16031E432368002B36DB244B9C420F
:1031900042D080214901234B1960234B1960234AF7
:1031A00092680B009343FAD1019B2360A060221D1B
:1031B000C0239B01134321221A602268002AFCDAF3
:1031C000E66008221A6003B0F0BD194B194A1621B7
:1031D0001948FFF7F3FB194B164A19211648FFF758
:1031E000EDFB174B134A1F211348FFF7E7FB154B65
:1031F000104A22211048FFF7E1FB22683F231340C9
:10320000019A9342C2D1A3681B051B0D8342BDD115
:10321000E368002EBAD1D6E780218901BBE7C0461A
:1032200000C0024000E0004000F0004000C000404C
:103230000C9E0010009E0010289E00106C9E001036
:10324000B89E0010D09E001080239B001843014BB5
:10325000D862704700800540064BAA2212011A600E
:103260002F22DA60044B054A1A60024B5B68002B80
:10327000FBDA7047004002400060024000B0FA00F4
:10328000704710B5002802D00B684968984710BDF8
:10329000002307E09A00D3185A004B1C03600B78F8
:1032A0009B18303B01680A78303AD2B2092AF1D92A
:1032B00018007047F0B5D6464F464646C0B582B0B6
:1032C00005000091904601930A9B99460B9C0C9E29
:1032D0000D9B9B0712D04E460C9B994618E0541C40
:1032E000019B00992020A84701372200B742F6D35E
:1032F00054460C964E460C9B994609E02700A24680
:10330000F4E7013C571C305D019B0099A8473A0047
:10331000002CF6D14E460D9B9B070AD5474605E08B
:10332000541C019B00992020A8472200D31BB342C4
:10333000F6D3100002B01CBC90469946A246F0BDE0
:10334000F0B5CE46474680B587B0049205930E9EF1
:103350000F9C10AD2B789946129F139B149DAA07C2
:103360001CD4002B0CD0EA070AD54A46002A02D109
:103370000C322A4204D0013B02E0302232550134A3
:10338000BC4205D21F2CF8D902E03022325501345C
:10339000EA0703D59C4201D21F2CF6D9EA0615D5BF
:1033A0006A0505D4002C03D0BC421CD09C421AD024
:1033B000119A102A23D0119A102A28D0119A022A81
:1033C0002DD01F2C02D83027375501341F2C2FD871
:1033D0004A46002A29D16A0737D42A0728D5202748
:1033E0003755013424E0671E002F06D0119A102AA9
:1033F00001D03C00DCE7023CDAE73C00D8E7AA0653
:10340000D9D41F2CD7D8782737550134D9E7AA0645
:10341000D4D51F2CD2D8582737550134D1E71F2CCB
:10342000CFD8622737550134CBE72D2737550134E4
:103430000395029301940096059B049AFFF73AFFC7
:1034400007B00CBC90469946F0BD2B273755013488
:10345000EEE7F0B5C64600B594B0089009910A921F
:103460000B931AAB10CB1B7898461F9D002C01D1F3
:1034700010239D438027FF002F4016D0002C20D022
:10348000002712E0AA061AD54121C918C9B20A3983
:10349000C9B27E1C0CABD9551C99200000F0D8FF96
:1034A000041E0FD01F2E0DD837001C99200000F0ED
:1034B000CFFFCBB2092BE5D83033D9B2E9E7612190
:1034C000E3E7002606951E9B05931D9B04931C9B1A
:1034D00003934346029301960CAB00930B9B0A9A0D
:1034E00009990898FFF72CFF14B004BC9046F0BD72
:1034F000F0B5D6464F4680B599B00C900D910E921E
:103500000F93209C219D22AB1B789A46249B0A9303
:10351000259B0B93289B994623002B4303D1103303
:103520004A469A4391468026F6004B461E4007D0F5
:1035300023002B4331D0002637004E4609941BE070
:1035400037004E46099417E0B20621D54122D21821
:10355000D2B20A3AD2B27C1C10ABDA550A9A0B9B53
:103560000998290000F0B6FF09900D000B000343F5
:1035700015D01F2C0ED827000A9A0B9B09982900FA
:1035800000F0A8FFD3B2092BDED83033DAB2E2E77D
:103590006122DCE72700B14603E0002701E02700B5
:1035A000B1464B460693279B0593269B04930A9BA3
:1035B000039353460293019710AB00930F9B0E9A0F
:1035C0000D990C98FFF7BCFE19B00CBC91469A46B9
:1035D000F0BD0000F0B5DE4657464646C0B592B095
:1035E00008900691099207931A9C1B9D22002B00BC
:1035F0002000290001F005FA002800D0EAE00122AD
:103600005242D34B2000290001F0F6F9002800D0E7
:10361000E0E001225242CF4B2000290001F0D6F910
:10362000002800D0D6E0002200232000290001F06D
:10363000CDF9002800D0E3E022002B000A920B9382
:103640008023DB001E9A1A409246131E01D10633D6
:103650001C930A980B9902000B000C920D93030027
:103660000A00024300D1D3E00A00100D4005400DCE
:10367000B94EB44660441203120B1E00B74B1343FD
:103680001F0001F0D1F9B64AB64B01F054F9B64A21
:10369000B64B01F029F90C900D910022B44B30008B
:1036A000390001F018F9B34AB34B01F044F90200B4
:1036B0000B000C980D9901F017F901F0CDF9804637
:1036C00001F0B2F9AD4AAE4B0C900D9101F033F917
:1036D0000022AC4B01F008F901F0BEF90700AA4A3C
:1036E000AA4B0C980D9901F026F90C900D91380019
:1036F00001F09AF9A64AA74B01F01DF902000B0050
:103700000C980D9901F0E7F802000B001090119150
:1037100001F011F90E900F919F4BFB181B050D93B3
:1037200000230C93109E119F32003B0030003900A3
:1037300001F0DAF81090119132003B000020802156
:10374000C90501F0C8F806000F000022934B0E983F
:103750000F9901F0D2F80022914B01F0C5F8020058
:103760000B000E980F9901F0C8F800228D4B01F064
:10377000BBF802000B000E980F9901F0BEF8020092
:103780000B003000390001F0AFF802000B00109878
:10379000119901F0B2F80022704B01F0A5F80C9AD3
:1037A0000D9B01F0C8F806000F000C900D910A9ACD
:1037B0000B9B01F021F900282CD001235B429C4691
:1037C000E0440022764B3000390001F096F80C906E
:1037D0000D911FE01E9B04931D9B03931C9B029362
:1037E00022002B0000920193079B099A06990898E2
:1037F00000F002F912B01CBC90469A46A346F0BDF8
:103800000A9480231B069C46AC4463460B9317E73F
:103810000023984643466333C62B22D804271E9BB9
:103820001B052AD50C9A0D9B1900114311D05E4A35
:103830005E4B0A980B9901F0D7F8002800D1BBE045
:1038400000225B4B0A980B9901F0C0F8002800D1C8
:10385000B2E01C9B434506DD42469E1A731E1C9334
:1038600003E00527DBE700231C938023DB001E9A7F
:103870001A431E920027002398461D9B9F4200D3A7
:10388000A6E0DB1B9B4602231E9A1A40924603D0F9
:10389000002F01D000239B464346002B07D00C9AF3
:1038A0000D9B0A980B9901F028F80A900B910022C1
:1038B00000232000290001F089F8002800D08AE0C8
:1038C0003C4B1E9A134004935B4603931C9B02934C
:1038D0000A9B0B9C00930194079B099A06990898F0
:1038E00000F08AF8002F00D184E71E9B9B0600D4CD
:1038F0007DE04524451C079B020006992000089C9A
:10390000A0474046C21781185140C30F7A1E0520B8
:1039100005900492002203920A32029201930091D0
:10392000079B2A0006992000FFF793FD5346002BC2
:1039300000D15FE70200089D099C131B1D998B4273
:1039400057D2561C079B06992020A8473200F4E75F
:10395000FFFFEF7FFFFFEFFF01FCFFFF0000F03FE5
:10396000FB799F501344D33FB3C8608B288AC63F6E
:103970000000F83F61436F63A787D23F71A37909C5
:103980004F930A400000E03F1655B5BBB16B0240B3
:10399000EF39FAFE422EE63FFF03000000002C4004
:1039A00000002440000018402D431CEBE2361A3F73
:1039B00080842E41FFF7FFFF1C9B002B00D15CE7AA
:1039C0005346002B00D158E71C9B013B1C9354E746
:1039D00000239B4657E70A9C0B9D2200290080206C
:1039E0000006844661440B000A920B9368E7652445
:1039F00080E71000FEE6C046F0B5D646474680B5E3
:103A000097B00690079108920993209F1E9A1F9BDA
:103A10001000190000F0F5FF00282AD101225242BF
:103A2000BB4B1E981F9900F0D1FF002830D1012216
:103A30005242B84B1E981F9900F0DEFF00283AD082
:103A40000423229A134032D0B34A002B31D10323EE
:103A5000229903912199029101930092099B089A5E
:103A600007990698FFF726FC17B00CBC90469A46BB
:103A7000F0BD229B0393219B029303230193A74B49
:103A80000093099B089A07990698FFF713FCEBE748
:103A9000229B0393219B029304230193A04B009349
:103AA000099B089A07990698FFF704FCDCE79D4AF2
:103AB000CBE70423CCE700229B4B1E981F9900F014
:103AC0009BFF002817D10022984B1E981F9900F0E9
:103AD0007DFF00280FD1002200231E981F9900F0BF
:103AE00075FF002817D100239A46229B5B0500D45E
:103AF0007DE000261FE0229B0493219B0393029705
:103B00001E9B1F9C00930194099B089A0799069895
:103B1000FFF760FDA8E71E9A1F9B0020002100F020
:103B2000DAFE1E901F9101239A46DEE70EAB30228B
:103B30009A55013F01361F2E01D8092FF6D81E983D
:103B40001F9900F089FF040000F06EFF02000B00D7
:103B50001E981F9900F0BFFEFA00754B9B181A685B
:103B60005B680C920D9300F0E6FE0A900B9100F05A
:103B700097FF050000F054FF02000B000A980B9914
:103B800000F0A9FE0A900B9100226A4B00F034FF6E
:103B900000282ED00135280000F042FF02000B0063
:103BA0000C980D9900F018FF002801D00134002571
:103BB000002F2CD1200000F037FF02000B001E98D0
:103BC0001F9900F088FE00225A4B0A900B9100F0DA
:103BD000FDFE002841D10022564B0A980B9900F0B7
:103BE0000BFF002839D1E30737D5013435E006272C
:103BF0007FE700224F4B0A980B9900F0E7FE002860
:103C0000D6D1002D01D0EB07D2D50135D0E70A94EB
:103C10001F2E10D8013F0A21280000F019FC741C47
:103C200030310EAB99550A21280000F011FC051E19
:103C300025D02600ECE70A9C04E00EAA302191551D
:103C40001F0001361F2E02D87B1E002FF5D11F2E1C
:103C500003D80EAB2E229A5501361F2E14D80A21F6
:103C6000200000F0CDFB751C30310EAB99550A21B8
:103C7000200000F0C5FB041E05D02E00EDE7A04695
:103C80000A9C4646DEE72E000323229A1340012BAE
:103C900016D01F2E06D85346002B28D00EAB2D224F
:103CA0009A550136229B0393219B029301960EABFA
:103CB0000093099B089A07990698FFF7FBFAD3E649
:103CC000219B002B0DD05346002B02D10C33134205
:103CD00007D0219B013B219303E00EAB30229A5584
:103CE0000136219B9E42D4D21F2EF6D9D1E7229BCA
:103CF0005B0704D50EAB2B229A550136D2E7229BE7
:103D00001B07CFD50EAB20229A550136CAE7C04615
:103D1000FFFFEFFFFFFFEF7FCCA00010D8A0001047
:103D2000DCA00010D4A0001065CDCD4165CDCDC183
:103D3000E8A000100000E03FF0B5DE4657464E46D2
:103D40004546E0B595B006000B9115001393002988
:103D500000D1FCE20027139B1878002800D1F8E27C
:103D6000252809D07C1C2B003A000B99B047139BE7
:103D7000013313932700EEE70133139300241DE072
:103D80000B00303BDBB2092B37D92A293AD000236C
:103D90009A46139B1A782E2A44D000230C93139A28
:103DA0001378683BD9B2122900D980E08B00D04942
:103DB000CB589F4601231C4301321392139A11786A
:103DC0000B00203BD8B21028DAD88300C948C3586A
:103DD0009F4602231C4301321392EFE704231C4346
:103DE00001321392EAE708231C4301321392E5E7FC
:103DF00010231C4301321392E0E713A8FFF748FA9F
:103E00008246C6E71E9B1A1D1E921B68002B04DB10
:103E10009A46139B01331393BBE7022214435B4280
:103E20009A46F6E78022D20014435A1C13925A781D
:103E30001300303BDBB2092B04D92A2A07D0002318
:103E40000C93ACE713A8FFF723FA0C90A7E71E9B8F
:103E50001A1D1E921B68002B04DB0C93139B01336D
:103E600013939CE70023F8E780235B002343511C56
:103E7000139152786C2A01D01C0018E0C0239B00DB
:103E80001C430131139112E080232343511C1391F1
:103E90005278682A01D01C0009E0C0231C4301317C
:103EA000139104E080235B001C4301321392139BA7
:103EB00018780300253BDAB2532A00D93DE293007B
:103EC0008D4AD3589F4680239B001C430132139296
:103ED000EDE780235B001C4301321392E7E778286B
:103EE0000AD058283BD06F283CD062283DD0102300
:103EF0009C43063B9C4601E010239C46582837D043
:103F0000692803D0642801D00C229443630501D5AD
:103F10000122944369282ED064282CD0A30500D513
:103F2000A5E0E30500D5BFE0630600D4D2E01E9A09
:103F3000111D1E911168FF220A40059453460493F7
:103F40000C9B0393634602930023019300922B0082
:103F50003A000B993000FFF77CFA07002BE01023A2
:103F60009C46CBE708239C46C8E702239C46C5E74E
:103F700020221443C4E7A30521D4E30551D46306EA
:103F800068D51E9A111D1E911168FF220A40D31791
:103F9000D1185940D20F0594534604930C9B0393B8
:103FA00063460293019200912B003A000B99300076
:103FB000FFF74FFA0700139B01331393CBE61E9BC9
:103FC000DA1D07218A43110008311E9111685368D8
:103FD0009846DB1710931193109A119B10004840DC
:103FE0000E901900404641400F910E980F99801A8B
:103FF00099410E900F914346DA0F08945346079368
:104000000C9B069363460493002305930292009051
:1040100001912B003A000B993000FFF769FA070075
:10402000C9E71E9A111D1E911268D317D118594065
:10403000D20F0594534604930C9B0393634602935B
:10404000019200912B003A000B993000FFF701FA22
:104050000700B0E7230605D51E9A111D1E91002307
:10406000D25E94E71E9A111D1E9112688FE71E9B67
:10407000DA1D07218A43110008311E915368126826
:104080000092019300220894534607930C9B0693D9
:1040900063460493059202922B003A000B9930007C
:1040A000FFF726FA070086E71E9A111D1E91136876
:1040B00000930594534604930C9B03936346029329
:1040C000002301932B003A000B993000FFF7C1F950
:1040D000070070E7230606D51E9A111D1E9112686F
:1040E0001204120C29E71E9A111D1E91126824E772
:1040F000EC9E0010389F00107C9F001046281AD0BC
:104100001E9B0733072293431A0008321E921A6837
:104110005B68009201930494534603930C9B0293B3
:104120002B003A000B993000FFF766FC0700139B49
:10413000013313930FE620231C43E1E7672801D0E6
:10414000472802D180231B011C43452801D0472862
:1041500001D120231C431E9B0733072293431A00DF
:1041600008321E921A685B680092019304945346C9
:1041700003930C9B02932B003A000B993000FFF73E
:1041800029FA0700139B01331393E4E5022323402C
:10419000994622D0012398461E9B1A1D1E927C1C14
:1041A00018782B003A000B99B0474B46002B1AD1D8
:1041B000139B013313932700CDE5571C0C9B0B99E0
:1041C0002020A84723003A005C1C9E42F5D8B24646
:1041D0001700A0462E000C9DDEE701233A000C9547
:1041E00035005646F0E7220043460C95350056460A
:1041F00006E0571C0C9B0B992020A84723003A008F
:104200005C1C9E42F5D814002E000C9DD0E71E9B2E
:104210001A1D1E921B689B460C9B002B21D101226C
:1042200052425B4601E001330A001978002902D0AE
:10423000511E002AF7D15A469B1A98468023DB006C
:104240002340994603D00C9B984500D998460223F9
:104250002340129307D03A005C4637004E460D9536
:104260001FE00C9ADDE73A004346370056460D95AD
:1042700006E0551C0D9B0B992020B84723002A000F
:104280005C1C9E42F5D8B2463E00A0465C46370014
:104290004E4606E00C930134551C0D9B0B99B84714
:1042A0002A002078002805D0002EF4D00C994B1E4F
:1042B0000029EFD13E0017000D9D129B002B03D16A
:1042C000139B0133139346E543460C953500564640
:1042D00006E0571C0C9B0B992020A84723003A00AE
:1042E0005C1C9E42F5D817002E000C9DE8E72123A8
:1042F00023431E9A111D1E911268009205930823F4
:1043000004930C9B039310230293002301932B002F
:104310003A000B993000FFF79CF80700139B01331C
:10432000139318E57C1C2B003A000B992520B0470D
:10433000139B0133139327000DE57C1C2B003A00DF
:104340000B99B047139B01331393270003E5094EE4
:1043500000E5AF420CD36A1E2B000B990020B0473A
:10436000380015B03CBC90469946A246AB46F0BD1D
:104370003A00F1E78132001000B585B00290039158
:104380000121009313004A4202A90248FFF7D4FC1E
:1043900005B000BD8332001001480421014B1847CD
:1043A00030020020C943001010B5010018231B88FB
:1043B00014221088984710BD10B5010018231B88DF
:1043C00016221088984710BDF0B5C64600B5070004
:1043D0000E0000250123984600E00135B5420AD2BF
:1043E000AC003C192068FFF7DFFF20600028F4D103
:1043F00000239846F1E7404604BC9046F0BD00001B
:10440000124A936F9B0815D29066D166002905D099
:10441000FFE7FFE7FFE7516F106F704704B580219A
:104420000906C2175140002800D0C84304F038FEE6
:10443000002104BDF0B5146E556E576F166FFFF76F
:10444000E3FF1466556657671667F0BD000000D09D
:10445000114A936F9B0813D210665166002905D04C
:10446000FFE7FFE7FFE7516F106F704704B50028C3
:1044700001D00020C04304F013FE002104BDC0465B
:10448000F0B5146E556E576F166FFFF7E5FF1466A3
:10449000556657671667F0BD000000D094464E4A37
:1044A000926F9208624601D230E0C046F0B54A4EA3
:1044B000B56F6D08FCD3346E756E776F366F00F094
:1044C00025F89446444A146655665767166762464F
:1044D000F0BDC0469446404A926F9208624601D2AF
:1044E00058E0C046F0B53C4EB56F6D08FCD3346E55
:1044F000756E776F366F00F04DF89446364A146645
:104500005566576716676246F0BDC046002B24DB30
:1045100011D000293EDA00B5C943404200D1013133
:1045200000F038F8C943404200D10131DB43524228
:1045300000D1013300BD002AEBD1002801D10029B0
:1045400005D00020C90FC90701D1C043410800B5FB
:1045500004F09EFD0022002300BD00B500290ADB07
:10456000DB43524200D1013300F014F8C94340420A
:1045700000D1013100BDC943404200D10131DB43CC
:10458000524200D1013300F005F8DB43524200D122
:10459000013300BD002923D1002B18D1002A0CD0F3
:1045A000BC460D4F38667A6600210023FFE7FFE71F
:1045B000FFE77A6F386F67467047002801D00748D9
:1045C000010000B504F064FD0022002300BD0200DC
:1045D0000B00002000217047000000D0FFFFFFFF0C
:1045E000002B00D0BFE0130C28D1002AE7D080B404
:1045F000114F39667A66FFE7FFE730B4040C7B6F32
:10460000396F1B0423433B667A66FFE7FFE7FFE74A
:10461000C04684B27B6F3D6F1B0423433B667A66C2
:10462000FFE7FFE7C04600232C042D0C7A6F386F9C
:1046300000196941B0BC7047000000D0F0B5944645
:104640000025140E01D112020835140F01D11201F8
:104650000435940F01D192000235D40F01D15200DC
:104660000135D40B0134254F7C66254C3C660E0C7D
:1046700093B2FFE7FFE7FFE73C6F6643360C770333
:10468000BE467343DF0B5B04C01AB941130C73437E
:10469000DB18C91ACE086643360CB64493B273438E
:1046A0001F0F1B01C01AB941130C73431F0B1B05CD
:1046B000C01AB941860D8F023E436643360C092D60
:1046C00024DB520A7243801A7703460A6643360C8B
:1046D00016235B1BDE40DF40BF1964466643821B26
:1046E0007046043506330100D940A840C01900D3F4
:1046F0000131A24206D20023F0BD0000000000D02C
:10470000FFFFFFFF121B0130F3D3F1E709277F1BE7
:10471000FE406446A2B27243801A00D20139220CD4
:104720007243130C1204821A99410B00704604352F
:1047300013370100F940A840801900D30131002B44
:1047400002D1A2420AD2F0BD013000D30131121BC6
:10475000FAD2013BF8D1A24200D2F0BD013000D321
:104760000131121BF7E7F0B51C0C00D080E00CB44F
:1047700000251C0A04D11B02160E33431202083511
:104780001C0B04D11B01160F3343120104359C0B83
:1047900004D19B00960F334392000235DC0B02D10B
:1047A00092185B4101351C00971864410134464F53
:1047B0007C66464C3C660E0CFFE7FFE7FFE7C04611
:1047C0003C6F6643360C7703BE4697B27743C01BF7
:1047D00000D20139C01B00D201399FB27743C91BF7
:1047E000C91B170C77437E04FF0B801BB941CE0811
:1047F0006643360C0C2D33DBB644120B1F053A43CF
:104800001B0B97B27743C01B00D201399FB277438D
:10481000C91B170C77433E043F0C801BB941860D22
:104820008F023E43664329277F1BFE400C3D77469F
:10483000AF40BF1930BCA2B2ABB272437343801A0F
:104840009941220C7243130C1204801A9941020000
:104850000B000137001BA941F9D2781E0021F0BDE1
:104860000C277F1BFE4077467F0BAF40FF19E0E728
:1048700000245D1C07D0144F7D663966FFE7FFE713
:10488000FFE7FFE73C6F95B29EB265436643401B6E
:10489000B141150C1E0C6543664336042F0C3E4394
:1048A0002D04401BB141994204D202000B002000AC
:1048B0000021F0BD01D19042F7D3801A9941013413
:1048C0009942F2D3F6E70000000000D0FFFFFFFF9F
:1048D00048404140484018B41B4B5B68FC4601937C
:1048E00008BD04DF434C001018B4174B1B68FC468E
:1048F000019308BD00DF4D4C00109446134A926F9F
:10490000920809D2624618B40F4BDB68FC4601934B
:1049100008BD0CDF054F00100C4AF0B5146E556E43
:10492000576F166F6246FFF7EEFF084A146655662A
:1049300057671667F0BD18B4034B9B68FC4601939C
:1049400008BD08DFA94D0010400E0020000000D077
:10495000FFB550404240504059404B40594000E064
:10496000FFB5154F4C00640D03D0BC4204D10C03BD
:1049700014D80020090D09055C00640D03D0BC4269
:1049800004D11C030AD800221B0D1B0501264B4035
:1049900009D44B4003D58B4200D18242FFBD9942DE
:1049A000FCD19042FFBD0B43DB1803431343F5D00A
:1049B000C9434918FFBD0000FF07000000B5FFF71D
:1049C000CFFF01D0002000BD012000BD00B5FFF7E2
:1049D000C7FF804100BDC04600B5FFF7C1FF01D948
:1049E000002000BD012000BD00B5FFF7B1FF01D9D7
:1049F000002000BD012000BD00B5FFF7A9FF8041E8
:104A000000BD012040054A00121804D85A001218AF
:104A100001D8002070470120704700207047000037
:104A20000021002805D17047C1174840401AFAD02C
:104A3000C90713B5064B1B6898470CBC441CA24021
:104A40001005120B0349091B09051943114310BD39
:104A50001C0E00201F04000010B54C00620D8023C6
:104A6000D218DB00D21A5B057E2A10DD9E3A13DADB
:104A7000CC170903490819435242D140640001345C
:104A80001532202A05DAD0400843604310BD0020CB
:104A900010BD0846604310BDC80FC018013810BDD6
:104AA00018B4044B5B6AFC46019308BD24DFB55083
:104AB00000100000400E002018B4044BDB6DFC46D3
:104AC000019308BD5CDFC15100100000400E0020C2
:104AD000C94211D300B549004908002200F018F876
:104AE000002904D4002240428A41114600BD8021A1
:104AF0000906002000BD000018B4044BDB6EFC4624
:104B0000019308BD6CDFC35000100000400E002070
:104B100018B4044B9B6FFC46019308BD78DFDF504F
:104B200000100000400E002018B4044BDB6FFC4660
:104B3000019308BD7CDF4D5100100000400E0020A5
:104B400070B513231C78012C14D0012C14DC022C1A
:104B500002DC1F4A1F4B9A641F48FFF725FC1F4BBE
:104B6000186070BD99001A481A4A885001331F2BEB
:104B7000F8D9EAE70023FAE71948FFF71DFC05001A
:104B80001848FFF719FC023803789B007F2B19DDCA
:104B9000802229000F4800F065FC022CD7D1124B6F
:104BA0001A88B5231B029A4209D1104B1A88104B60
:104BB0009A4204D10F4B1A880F4B9A42C7D000205B
:104BC000FDF796FF0D4B0E4A32210E48FDF7F6FE1B
:104BD000094C0010400E00204C3300001C0E002039
:104BE000534400005346000054380000D8380000F9
:104BF000494600009C3800005946000038A10010CA
:104C0000E4A1001098A1001007B56046002800D16B
:104C100000BE01880A0A0230DF2AFAD1C9B282082E
:104C200004D3028840880004104300E00068024A70
:104C30005050039007BD0000400E00200FB403BC8D
:104C40000CBCF0B50124E407634000E0F0B50C0DA6
:104C5000CF0F661E3605891B640503D3C943404246
:104C600000D30131640D03D0661CF60A07D0E41BA3
:104C700000207F00791C89078912803C24031D0DC8
:104C8000DF0F6E1E36059B1B6D0503D3DB435242BF
:104C900000D301336D0D03D06E1CF60A07D0ED1B57
:104CA00000227F007B1C9B079B12803D2D032F1B46
:104CB000661B58D4A446202E46DA20371400BC4088
:104CC0001D00BD40F24033412A4380185941CB0FAB
:104CD00005D0C943C043002264425041514162465D
:104CE0004D0D28D10D0D07D100281FD024194041AA
:104CF0004941013A0D0DF9D0640006D3013000D3CB
:104D00000131002C01D140084000013A0BD4941C21
:104D1000E40A04D112051144DB071944F0BDD90798
:104D2000204B194300E0D9070020F0BD0029DDD158
:104D3000002CDBD1F0BD0132C6074008CD07284367
:104D40004908002EE1D0D9E73C2E29DA203E403731
:104D50001400BC4000D00124F24014431A00BB40B0
:104D60001C43D317ACE7AC46202F08DA20360400EA
:104D7000B4400D00B540F84039412843A5E73C2F29
:104D80000CDA203F40360400B44000D00124F84043
:104D900004430800B1400C43C117EAE710001900B2
:104DA000002494E70000F07FF0B50C0D661E360578
:104DB000891BE60A6405640D02D0651CED0A04D067
:104DC000002001210905803C2403A4461C0D671E18
:104DD0003F05DB1BE70A6405640D02D0651CED0A84
:104DE00004D0002201231B05803C24037740644447
:104DF00097B484B296B27443070C7E43150C6F438C
:104E000080B26843361802D3012000043F183004F2
:104E1000350C00197D41844688B29AB250430C0C7F
:104E200062431F0C7C438EB27E43921902D301264B
:104E30003604A4191604170C3618674101BC81B258
:104E40009AB25143040C62431B0C5C4380B258433A
:104E5000121802D30120000424181004130C401867
:104E600063412D185E410020474106BC88B293B2D1
:104E700058430C0C6343120C544389B251435B18E2
:104E800002D301210904641819041A0C091862419B
:104E90006D1856410020474118BCF902720D1143AC
:104EA000F0026A0D1043ED020A0D03D16D19404165
:104EB0004941013B124E9B1B7600B3420ED26D005E
:104EC00007D30130002671416646354301D14008C1
:104ED00040001B05C918E4072144F0BD0BDA01337B
:104EE00006D1013004D101314F0D01D04908F2E75C
:104EF000E1070020F0BD013631050020EBE700009E
:104F0000FF030000F0B51C0D671E3F05DB1BE70A21
:104F10006405640D02D0661CF60A04D00022012349
:104F20001B05803C2403D0252D060026F6432E6663
:104F30001E096E66CE0FF619B44649004F0D02D019
:104F40007E1CF60A03D000200021403F3F033E1B99
:104F5000B600B444013F7F05C91B49082E6F0136D6
:104F600076089C02950D25437543ED137543AD13EB
:104F700001356D10F603761B0CB4CC02450D2C43A5
:104F8000A2B2B3B25A43270C7B43350C6F43A4B291
:104F90006C431B1902D3012424043F191C041D0C6B
:104FA000A4187D4124196D41009A91B2ACB26143BD
:104FB000170C7C432B0C5F4392B25A43A41802D3C4
:104FC00001221204BF182204230C52187B41019CB9
:104FD0006C431B19520ED9010A434401A01A81B235
:104FE000B2B2514303145A43360C734387B277432A
:104FF000D617D21900277E4136049B191704160CC8
:105000007F185E417316ED18F30100268033754159
:10501000A90F06D16400690AE8055B0A184309D2A2
:105020002FE00422944480337541A90AA8059B0A05
:10503000184326D3404149412404009A019B0D00A6
:105040005543641B4343E41A95B286B27543170C6B
:105050007E43030C5F4392B25A43B61802D3012237
:105060001204BF183204330C52197B4152429C4146
:10507000002C02D40022013051414008CA071043DD
:10508000490802B06246D7079210084BD218084B65
:105090009A4203D212058918C919F0BD0020002ACE
:1050A00001DC3900F0BD01331905F5E7FD0300000F
:1050B000FE070000002200B5203200F010F80800C2
:1050C00000BD002200B500F00CF8CA179A4200D1CA
:1050D00000BDD8430121C907414000BD00220B1586
:1050E0000AD410B5944600F0A7F81414013400DA7D
:1050F0000021CB17144C2047002000217047624448
:10510000343A0CD40C2A07DA040091409040524201
:105110002032D440214310BDD843D94310BD2032A2
:1051200007D40C469440524220321141D0402043D3
:1051300010BD0800C917203203D45242203210415A
:1051400010BD1800190010BDFF5000104A00520D8C
:10515000144BD21A13DDFF2A1EDAD205CB0FDB0760
:105160001A43C300400F0903490A084310435B0078
:1051700001D301D0013070474308FBD2704702D001
:10518000C80FC00770470A0312130132F8D1420F4B
:10519000072AF5D1012200E0FF22C80F0002801883
:1051A000C00570478003000000210A00002104E0D0
:1051B00000210A00C11704E00022002306E0C046D7
:1051C0000022CB1758405940C01A994130B5184CAD
:1051D000A21A002903D1010010D00020203A4C155A
:1051E00012D104D2013A001849414C0DFAD3114CA6
:1051F000A24204D212058918DB07C91830BDD24378
:10520000520D00200021F5E703D4013A001849416E
:10521000FBD50B324405C00A4D052843C90A64007A
:1052200003D0002460416141E1E7E0D34408F8E79E
:1052300032040000FE0700000A0DCC0F531E1B05B0
:10524000C91A520503D3C943404200D30131520D5C
:1052500003D0531CDB0A07D0121B00206400611C22
:1052600089078912803A1203014BD21A7047000055
:10527000FF03000007B548404140484001E0C046F8
:1052800007B54200120E03D0FF2A03D1420218D8FC
:10529000C00DC0054A00120E03D0FF2A03D14A02F6
:1052A0000FD8C90DC9050122414005D4414001D59F
:1052B000814207BD884207BD0143491801D0C04360
:1052C000001807BD00B5FFF7DBFF01D9002000BDC6
:1052D000012000BD01231B064200D21804D84A0059
:1052E000D21801D8002070470120704770B51323F1
:1052F0001D782A48FFF760F80400012D11D0012D18
:1053000009DDA31E1B789B007F2B40DD802221003E
:10531000234800F0A7F82348FFF746F8224B18600F
:1053200070BD542201001E4800F09CF81F4B1A88E3
:105330001F4B9A421CD1A7239B011A881D4B9A42EE
:1053400016D11D4B1A881D4B9A4211D11C4B1A883D
:1053500094239B019A420BD11A4B1A881A4B9A42FA
:1053600006D11A4B1A681A4B9A4201D1152307E04D
:105370001848FDF7BDFB99001748094A88500133CA
:105380001F2BF8D9144A064B1A62DA61B7E7134BA0
:10539000134A42211348FDF711FBC0465346000053
:1053A000400F00204C3300001C0E0020EE290000AE
:1053B000C40F0000C20D0000962B0000C0B5000015
:1053C000182B0000CC2A000010B50000FC2C0000B7
:1053D00051ED87648C9A0010E9530010F8A1001079
:1053E00078A200102CA2001007B56046002800D15A
:1053F00000BE01880A0A0230DF2AFAD1C9B2820847
:1054000004D3028840880004104300E00068024A88
:105410005050039007BD0000400F002010B504005D
:1054200000F02AFE002804D00419034B9C4200D847
:1054300010BD0248FDF75CFB000004208CA20010A8
:1054400010B500F023FE10BD01480421014B1847A0
:1054500040020020C9430010014B1B6818470000A0
:1054600040020020014B5B6818470000400200200A
:1054700010B50C00036811002000984710BD000013
:10548000F8B506000D001700437C002B23D10368FC
:10549000110028009847F8BD337C10E0022117481E
:1054A00033689847601C0134BC4217DA002CF3DDE6
:1054B0002B19013B1B780D3B5A425341DBB22A5D4D
:1054C0000A2AF0D1002BEED1A042E7DA211A2818DF
:1054D00033689847E2E700240020E5E7B84203DAA2
:1054E000391A281833689847002FD4DDED19013D8B
:1054F0002B780D3B5A4253413374CCE75CA3001028
:1055000070B505000368002B16D00C4B1C6805E035
:10551000291D2A682000FFF7B3FFE468002C09D09A
:105520002368002BF9D0064B1B68002BF0D0A34258
:10553000F3D1EDE700232B6070BDC046000E0020C4
:10554000040E002070B505000C000B68802B05D000
:1055500023685A1C2260E418257170BD0800FFF70B
:10556000CFFFF5E7F0B583B005000C0017000193FD
:1055700027E0B368002B04D02100280098470028BA
:1055800026DCF668002E06D0124B1B68002BF0D0EC
:10559000B342F6D1EDE701200021FCF7B9FE019AF4
:1055A0000D4B5B6A9A4209D80B48806AB8420BD20D
:1055B0009A4201D0012302E0002300E00023002BE7
:1055C00004D1064B1E68DDE70123F8E701204042C5
:1055D00003B0F0BD040E002000400540000E002086
:1055E00010B582B0D0231B0600241C5701A9074820
:1055F00003F05EFD002806D1019B9C4203D00348C6
:1056000003F05EFD012002B010BDC046180C002062
:1056100010B5024803F034FD10BDC046180C002040
:10562000F0B5C64600B584B001900D0016001C0010
:10563000FFF7D6FF80466B1C05D0002C08D0194F11
:10564000194B1C6814E0019801F08EFA0500F4E78C
:10565000164FF5E72A0001992000B847002E06D022
:1056600002ABD91D0A230B7001222000B847E46861
:10567000002C09D02368002BF9D00D4B1B68002BA0
:10568000E8D0A342F3D1E5E74346002B06D1681EDC
:105690008541E8B204B004BC9046F0BDFFF7B8FF06
:1056A000F5E7C04671540010000E00208154001030
:1056B000040E002010B582B004006B46D81D0470A3
:1056C000002300220121FFF7ABFF200002B010BD34
:1056D00010B50C001100002806D1054B1A685B6854
:1056E0002000FFF73FFF10BD01204042FBE7C0460E
:1056F0002897001070B50D001400012807D1002371
:10570000002221002800FFF78BFF200070BD012040
:105710004042FBE70C4B1A681300002B0BD083426E
:1057200002D01A00DB68F8E7002903D1DB68D360F8
:105730000023C36070470029FCD0002A01D0D0604C
:10574000F8E7014B1860F5E7000E002010B5064B96
:105750001C6800E0E468002C04D06368002BF9D0DA
:105760009847F7E710BDC046000E002070B5050051
:1057700001F0FAF904000023012201002800FFF7DC
:105780004FFFFFF7E3FF200070BD000070B5A2B02F
:1057900004000E00FFF724FF05008422002101A869
:1057A000FFF75AFE3300220001A90848FEF7E4FD86
:1057B000040001A8FFF7A4FEFFF7C8FF002D02D1E7
:1057C000200022B070BDFFF723FFF9E74555001018
:1057D0000FB400B583B004A901C90191FFF7D6FF4A
:1057E00003B008BC04B0184710B500F09FF810BD16
:1057F00000B583B00A4B1A685B68012101A8FFF766
:10580000B1FE002803DB012803D101AB187803B0F7
:1058100000BD1E21034B044AFF310448FDF7CEF8BA
:10582000289700100CA30010FCA2001018A3001071
:10583000F0B583B0002606E06B469C1D2570002560
:10584000002D1DD001368E4222DA124B1A68855D7A
:10585000114BD3185C4263415B00104C1B5FAB42A1
:10586000EAD16B46DC1D0D2323700027002FE3D106
:1058700093699B06FCD42378136001370134F5E764
:1058800093699B06FCD42378136001350134D7E774
:1058900003B0F0BD340E00200080FCBF3C0E0020A1
:1058A000F0B583B0070000200BE0461C3818002438
:1058B0006B46DD1D002C0FD06B4607331B78037041
:1058C0003000884204DA094B1A689369DB06ECD58C
:1058D000002809D003B0F0BD9369DB06FCD413683F
:1058E0002B7001340135E5E70338F3E7340E00206F
:1058F00070B515001C000B4B1860FCF709F9002D62
:105900000ADA002C03DB02212000FCF74FF801210A
:105910000548FFF7FFFE70BD02212800FCF746F89E
:10592000EFE7C046340E00205002002010B5064BB1
:105930001B78064B1B78E121012300224902044811
:10594000FFF7D6FF10BDC04640A8001044A80010C5
:105950000040034010B5514300F0A2FB041E1CD0D0
:105960000300083B5A6803239A43043A242A16D8B2
:105970000300132A0DD900210833016041601B2A5E
:1059800007D98160C160242A0DD103000161183359
:10599000416100221A605A609A60200010BD002107
:1059A000FFF75AFDF9E703001033F2E7F0B5C646FA
:1059B00000B50C23CA5E804693B20C00190746D48A
:1059C00080231B0113436268A381002A5FDDA56A5F
:1059D000002D5FD042464146166800229BB20A6005
:1059E000E169DA0400D57EE0012300224046A847A1
:1059F000431C55D0A389A56AE1695B0706D5636896
:105A0000C01A236B002B01D0E36BC01A00230200E5
:105A10004046A847431C4FD0A389364A1340002272
:105A2000626022691BB2A3812260DB0459D4434621
:105A3000216B1E6000292DD023004033994202D0F3
:105A4000404600F0E7F900230020236323E02669A5
:105A5000002E1FD022682660951B00229B071DD0B8
:105A6000A260002D04DC15E036182D1A002D11DD82
:105A70002B003200E1694046676AB8470028F3DC32
:105A8000A389402201201343A381404203E0E26B3B
:105A9000002A9CDC002004BC9046F0BD6269DFE770
:105AA00043461B68002BA5D01D2B01D0162B1CD103
:105AB000434600201E60EEE743461D680C22A35EAD
:105AC0001D2DDED80C490122E9408A43D9D109496C
:105AD000626022690B40A3812260DB04A7D5002D00
